{
    "_format": "hh-sol-artifact-1",
    "contractName": "Staking",
    "sourceName": "contracts/Staking.sol",
    "abi": [
        {
            "inputs": [],
            "name": "getReward",
            "outputs": [],
            "stateMutability": "nonpayable",
            "type": "function"
        },
        {
            "inputs": [
                {
                    "internalType": "address[]",
                    "name": "_buyers",
                    "type": "address[]"
                },
                {
                    "internalType": "uint256[]",
                    "name": "_amount",
                    "type": "uint256[]"
                },
                {
                    "internalType": "uint256[]",
                    "name": "_vestTime",
                    "type": "uint256[]"
                },
                {
                    "internalType": "uint256[]",
                    "name": "_lockedTime",
                    "type": "uint256[]"
                }
            ],
            "name": "giveUserInitialBalance",
            "outputs": [],
            "stateMutability": "nonpayable",
            "type": "function"
        },
        {
            "inputs": [
                {
                    "internalType": "address",
                    "name": "initialOwner",
                    "type": "address"
                }
            ],
            "stateMutability": "nonpayable",
            "type": "constructor"
        },
        {
            "inputs": [
                {
                    "internalType": "address",
                    "name": "owner",
                    "type": "address"
                }
            ],
            "name": "OwnableInvalidOwner",
            "type": "error"
        },
        {
            "inputs": [
                {
                    "internalType": "address",
                    "name": "account",
                    "type": "address"
                }
            ],
            "name": "OwnableUnauthorizedAccount",
            "type": "error"
        },
        {
            "anonymous": false,
            "inputs": [
                {
                    "indexed": true,
                    "internalType": "address",
                    "name": "previousOwner",
                    "type": "address"
                },
                {
                    "indexed": true,
                    "internalType": "address",
                    "name": "newOwner",
                    "type": "address"
                }
            ],
            "name": "OwnershipTransferred",
            "type": "event"
        },
        {
            "inputs": [],
            "name": "renounceOwnership",
            "outputs": [],
            "stateMutability": "nonpayable",
            "type": "function"
        },
        {
            "anonymous": false,
            "inputs": [
                {
                    "indexed": true,
                    "internalType": "address",
                    "name": "user",
                    "type": "address"
                },
                {
                    "indexed": true,
                    "internalType": "uint256",
                    "name": "amount",
                    "type": "uint256"
                }
            ],
            "name": "RewardsClaimed",
            "type": "event"
        },
        {
            "inputs": [],
            "name": "stake",
            "outputs": [],
            "stateMutability": "payable",
            "type": "function"
        },
        {
            "anonymous": false,
            "inputs": [
                {
                    "indexed": true,
                    "internalType": "address",
                    "name": "user",
                    "type": "address"
                },
                {
                    "indexed": true,
                    "internalType": "uint256",
                    "name": "amount",
                    "type": "uint256"
                }
            ],
            "name": "Staked",
            "type": "event"
        },
        {
            "inputs": [
                {
                    "internalType": "address",
                    "name": "newOwner",
                    "type": "address"
                }
            ],
            "name": "transferOwnership",
            "outputs": [],
            "stateMutability": "nonpayable",
            "type": "function"
        },
        {
            "anonymous": false,
            "inputs": [
                {
                    "indexed": false,
                    "internalType": "uint256",
                    "name": "_newRate",
                    "type": "uint256"
                }
            ],
            "name": "UpdateReward",
            "type": "event"
        },
        {
            "inputs": [
                {
                    "internalType": "uint256",
                    "name": "_rate",
                    "type": "uint256"
                }
            ],
            "name": "updateREWARD_RATE",
            "outputs": [],
            "stateMutability": "nonpayable",
            "type": "function"
        },
        {
            "inputs": [],
            "name": "updateUnlockedNew",
            "outputs": [],
            "stateMutability": "nonpayable",
            "type": "function"
        },
        {
            "inputs": [
                {
                    "internalType": "uint256",
                    "name": "amount",
                    "type": "uint256"
                }
            ],
            "name": "withdraw",
            "outputs": [],
            "stateMutability": "nonpayable",
            "type": "function"
        },
        {
            "inputs": [
                {
                    "internalType": "uint256",
                    "name": "balance",
                    "type": "uint256"
                }
            ],
            "name": "withdrawBalance",
            "outputs": [
                {
                    "internalType": "bool",
                    "name": "",
                    "type": "bool"
                }
            ],
            "stateMutability": "payable",
            "type": "function"
        },
        {
            "anonymous": false,
            "inputs": [
                {
                    "indexed": true,
                    "internalType": "address",
                    "name": "user",
                    "type": "address"
                },
                {
                    "indexed": true,
                    "internalType": "uint256",
                    "name": "amount",
                    "type": "uint256"
                }
            ],
            "name": "Withdrawn",
            "type": "event"
        },
        {
            "stateMutability": "payable",
            "type": "fallback"
        },
        {
            "inputs": [],
            "name": "updateRewardFunc",
            "outputs": [],
            "stateMutability": "nonpayable",
            "type": "function"
        },
        {
            "inputs": [
                {
                    "internalType": "address",
                    "name": "",
                    "type": "address"
                }
            ],
            "name": "isUnLocked",
            "outputs": [
                {
                    "internalType": "bool",
                    "name": "",
                    "type": "bool"
                }
            ],
            "stateMutability": "view",
            "type": "function"
        },
        {
            "inputs": [
                {
                    "internalType": "address",
                    "name": "",
                    "type": "address"
                }
            ],
            "name": "lastTimeUnlocked",
            "outputs": [
                {
                    "internalType": "uint256",
                    "name": "",
                    "type": "uint256"
                }
            ],
            "stateMutability": "view",
            "type": "function"
        },
        {
            "inputs": [
                {
                    "internalType": "address",
                    "name": "",
                    "type": "address"
                }
            ],
            "name": "lastUpdatedTime",
            "outputs": [
                {
                    "internalType": "uint256",
                    "name": "",
                    "type": "uint256"
                }
            ],
            "stateMutability": "view",
            "type": "function"
        },
        {
            "inputs": [
                {
                    "internalType": "address",
                    "name": "",
                    "type": "address"
                }
            ],
            "name": "lockedTime",
            "outputs": [
                {
                    "internalType": "uint256",
                    "name": "",
                    "type": "uint256"
                }
            ],
            "stateMutability": "view",
            "type": "function"
        },
        {
            "inputs": [],
            "name": "owner",
            "outputs": [
                {
                    "internalType": "address",
                    "name": "",
                    "type": "address"
                }
            ],
            "stateMutability": "view",
            "type": "function"
        },
        {
            "inputs": [],
            "name": "REWARD_RATE",
            "outputs": [
                {
                    "internalType": "uint256",
                    "name": "",
                    "type": "uint256"
                }
            ],
            "stateMutability": "view",
            "type": "function"
        },
        {
            "inputs": [
                {
                    "internalType": "address",
                    "name": "",
                    "type": "address"
                }
            ],
            "name": "rewards",
            "outputs": [
                {
                    "internalType": "uint256",
                    "name": "",
                    "type": "uint256"
                }
            ],
            "stateMutability": "view",
            "type": "function"
        },
        {
            "inputs": [
                {
                    "internalType": "address",
                    "name": "",
                    "type": "address"
                }
            ],
            "name": "stakedBalance",
            "outputs": [
                {
                    "internalType": "uint256",
                    "name": "",
                    "type": "uint256"
                }
            ],
            "stateMutability": "view",
            "type": "function"
        },
        {
            "inputs": [],
            "name": "totalStakedTokens",
            "outputs": [
                {
                    "internalType": "uint256",
                    "name": "",
                    "type": "uint256"
                }
            ],
            "stateMutability": "view",
            "type": "function"
        },
        {
            "inputs": [
                {
                    "internalType": "address",
                    "name": "",
                    "type": "address"
                }
            ],
            "name": "unlockedRate",
            "outputs": [
                {
                    "internalType": "uint256",
                    "name": "",
                    "type": "uint256"
                }
            ],
            "stateMutability": "view",
            "type": "function"
        },
        {
            "inputs": [
                {
                    "internalType": "address",
                    "name": "",
                    "type": "address"
                }
            ],
            "name": "userRewardPerTokenPaid",
            "outputs": [
                {
                    "internalType": "uint256",
                    "name": "",
                    "type": "uint256"
                }
            ],
            "stateMutability": "view",
            "type": "function"
        },
        {
            "inputs": [
                {
                    "internalType": "address",
                    "name": "",
                    "type": "address"
                }
            ],
            "name": "vestedTokens",
            "outputs": [
                {
                    "internalType": "uint256",
                    "name": "",
                    "type": "uint256"
                }
            ],
            "stateMutability": "view",
            "type": "function"
        }
    ],
    "bytecode": "608060405264174876e8006002553480156200001a57600080fd5b50604051620023363803806200233683398181016040528101906200004091906200020e565b806001600081905550600073ffffffffffffffffffffffffffffffffffffffff168173ffffffffffffffffffffffffffffffffffffffff1603620000be5760006040517f1e4fbdf7000000000000000000000000000000000000000000000000000000008152600401620000b5919062000251565b60405180910390fd5b620000cf81620000de60201b60201c565b5042600581905550506200026e565b6000600160009054906101000a900473ffffffffffffffffffffffffffffffffffffffff16905081600160006101000a81548173ffffffffffffffffffffffffffffffffffffffff021916908373ffffffffffffffffffffffffffffffffffffffff1602179055508173ffffffffffffffffffffffffffffffffffffffff168173ffffffffffffffffffffffffffffffffffffffff167f8be0079c531659141344cd1fd0a4f28419497f9722a3daafe3b4186f6b6457e060405160405180910390a35050565b600080fd5b600073ffffffffffffffffffffffffffffffffffffffff82169050919050565b6000620001d682620001a9565b9050919050565b620001e881620001c9565b8114620001f457600080fd5b50565b6000815190506200020881620001dd565b92915050565b600060208284031215620002275762000226620001a4565b5b60006200023784828501620001f7565b91505092915050565b6200024b81620001c9565b82525050565b600060208201905062000268600083018462000240565b92915050565b6120b8806200027e6000396000f3fe6080604052600436106101395760003560e01c8063715018a6116100ab578063c2d08cba1161006f578063c2d08cba14610409578063c61da68e14610446578063d3cb9ece1461046f578063da76d5cd14610486578063f2fde38b146104b6578063fc44516a146104df5761013a565b8063715018a61461032457806387ae3ca91461033b5780638b876347146103645780638da5cb5b146103a15780638f427ff2146103cc5761013a565b80633d18b912116100fd5780633d18b912146102145780633dee03971461022b57806348ad0e89146102685780635167071a146102a55780635997bb37146102bc57806360217267146102e75761013a565b80630700037d1461013c5780632e1a7d4d146101795780633266fb05146101a25780633a4b66f1146101df5780633ae73259146101e95761013a565b5b005b34801561014857600080fd5b50610163600480360381019061015e91906118d0565b61051c565b6040516101709190611916565b60405180910390f35b34801561018557600080fd5b506101a0600480360381019061019b919061195d565b610534565b005b3480156101ae57600080fd5b506101c960048036038101906101c491906118d0565b61079b565b6040516101d69190611916565b60405180910390f35b6101e76107b3565b005b3480156101f557600080fd5b506101fe610921565b60405161020b9190611916565b60405180910390f35b34801561022057600080fd5b50610229610927565b005b34801561023757600080fd5b50610252600480360381019061024d91906118d0565b610aff565b60405161025f9190611916565b60405180910390f35b34801561027457600080fd5b5061028f600480360381019061028a91906118d0565b610b17565b60405161029c9190611916565b60405180910390f35b3480156102b157600080fd5b506102ba610b2f565b005b3480156102c857600080fd5b506102d1610e9d565b6040516102de9190611916565b60405180910390f35b3480156102f357600080fd5b5061030e600480360381019061030991906118d0565b610ea3565b60405161031b9190611916565b60405180910390f35b34801561033057600080fd5b50610339610ebb565b005b34801561034757600080fd5b50610362600480360381019061035d9190611ba6565b610ecf565b005b34801561037057600080fd5b5061038b600480360381019061038691906118d0565b611152565b6040516103989190611916565b60405180910390f35b3480156103ad57600080fd5b506103b661116a565b6040516103c39190611c8c565b60405180910390f35b3480156103d857600080fd5b506103f360048036038101906103ee91906118d0565b611194565b6040516104009190611916565b60405180910390f35b34801561041557600080fd5b50610430600480360381019061042b91906118d0565b6111ac565b60405161043d9190611cc2565b60405180910390f35b34801561045257600080fd5b5061046d6004803603810190610468919061195d565b6111cc565b005b34801561047b57600080fd5b50610484611215565b005b6104a0600480360381019061049b919061195d565b611389565b6040516104ad9190611cc2565b60405180910390f35b3480156104c257600080fd5b506104dd60048036038101906104d891906118d0565b61142c565b005b3480156104eb57600080fd5b50610506600480360381019061050191906118d0565b6114b2565b6040516105139190611916565b60405180910390f35b60076020528060005260406000206000915090505481565b61053c6114ca565b610544611215565b61054c610b2f565b60008111801561059b5750600660003373ffffffffffffffffffffffffffffffffffffffff1673ffffffffffffffffffffffffffffffffffffffff168152602001908152602001600020548111155b6105da576040517f08c379a00000000000000000000000000000000000000000000000000000000081526004016105d190611d3a565b60405180910390fd5b80600360008282546105ec9190611d89565b9250508190555080600660003373ffffffffffffffffffffffffffffffffffffffff1673ffffffffffffffffffffffffffffffffffffffff16815260200190815260200160002060008282546106429190611d89565b9250508190555080600960003373ffffffffffffffffffffffffffffffffffffffff1673ffffffffffffffffffffffffffffffffffffffff16815260200190815260200160002060008282546106989190611d89565b92505081905550803373ffffffffffffffffffffffffffffffffffffffff167f7084f5476618d8e60b11ef0d7d3f06914655adb8793e28ff7f018d4c76d505d560405160405180910390a360003373ffffffffffffffffffffffffffffffffffffffff168260405161070990611dee565b60006040518083038185875af1925050503d8060008114610746576040519150601f19603f3d011682016040523d82523d6000602084013e61074b565b606091505b505090508061078f576040517f08c379a000000000000000000000000000000000000000000000000000000000815260040161078690611e4f565b60405180910390fd5b50610798611519565b50565b600b6020528060005260406000206000915090505481565b6107bb6114ca565b6107c3611215565b6107cb610b2f565b6000341161080e576040517f08c379a000000000000000000000000000000000000000000000000000000000815260040161080590611d3a565b60405180910390fd5b34600360008282546108209190611e6f565b9250508190555034600660003373ffffffffffffffffffffffffffffffffffffffff1673ffffffffffffffffffffffffffffffffffffffff16815260200190815260200160002060008282546108769190611e6f565b9250508190555034600960003373ffffffffffffffffffffffffffffffffffffffff1673ffffffffffffffffffffffffffffffffffffffff16815260200190815260200160002060008282546108cc9190611e6f565b92505081905550343373ffffffffffffffffffffffffffffffffffffffff167f9e71bc8eea02a63969f509818f2dafb9254532904319f9dbda79b67bd34a5f3d60405160405180910390a361091f611519565b565b60035481565b61092f6114ca565b610937611215565b6000600760003373ffffffffffffffffffffffffffffffffffffffff1673ffffffffffffffffffffffffffffffffffffffff168152602001908152602001600020549050600081116109be576040517f08c379a00000000000000000000000000000000000000000000000000000000081526004016109b590611eef565b60405180910390fd5b6000600760003373ffffffffffffffffffffffffffffffffffffffff1673ffffffffffffffffffffffffffffffffffffffff16815260200190815260200160002081905550803373ffffffffffffffffffffffffffffffffffffffff167ffc30cddea38e2bf4d6ea7d3f9ed3b6ad7f176419f4963bd81318067a4aee73fe60405160405180910390a360003373ffffffffffffffffffffffffffffffffffffffff1682604051610a6d90611dee565b60006040518083038185875af1925050503d8060008114610aaa576040519150601f19603f3d011682016040523d82523d6000602084013e610aaf565b606091505b5050905080610af3576040517f08c379a0000000000000000000000000000000000000000000000000000000008152600401610aea90611e4f565b60405180910390fd5b5050610afd611519565b565b60096020528060005260406000206000915090505481565b600d6020528060005260406000206000915090505481565b6000600d60003373ffffffffffffffffffffffffffffffffffffffff1673ffffffffffffffffffffffffffffffffffffffff1681526020019081526020016000205403610bbd57600554600d60003373ffffffffffffffffffffffffffffffffffffffff1673ffffffffffffffffffffffffffffffffffffffff168152602001908152602001600020819055505b6000610c11600d60003373ffffffffffffffffffffffffffffffffffffffff1673ffffffffffffffffffffffffffffffffffffffff168152602001908152602001600020544261152390919063ffffffff16565b9050600b60003373ffffffffffffffffffffffffffffffffffffffff1673ffffffffffffffffffffffffffffffffffffffff1681526020019081526020016000205481118015610cab5750600c60003373ffffffffffffffffffffffffffffffffffffffff1673ffffffffffffffffffffffffffffffffffffffff16815260200190815260200160002060009054906101000a900460ff16155b15610d5657600b60003373ffffffffffffffffffffffffffffffffffffffff1673ffffffffffffffffffffffffffffffffffffffff1681526020019081526020016000205481610cfb9190611d89565b90506001600c60003373ffffffffffffffffffffffffffffffffffffffff1673ffffffffffffffffffffffffffffffffffffffff16815260200190815260200160002060006101000a81548160ff0219169083151502179055505b600c60003373ffffffffffffffffffffffffffffffffffffffff1673ffffffffffffffffffffffffffffffffffffffff16815260200190815260200160002060009054906101000a900460ff1615610e9a5742600d60003373ffffffffffffffffffffffffffffffffffffffff1673ffffffffffffffffffffffffffffffffffffffff168152602001908152602001600020819055506000610e4082600a60003373ffffffffffffffffffffffffffffffffffffffff1673ffffffffffffffffffffffffffffffffffffffff1681526020019081526020016000205461153990919063ffffffff16565b905080600960003373ffffffffffffffffffffffffffffffffffffffff1673ffffffffffffffffffffffffffffffffffffffff1681526020019081526020016000206000828254610e919190611e6f565b92505081905550505b50565b60025481565b60066020528060005260406000206000915090505481565b610ec361154f565b610ecd60006115d6565b565b610ed761154f565b60005b84518160ff16101561114b57838160ff1681518110610efc57610efb611f0f565b5b602002602001015160066000878460ff1681518110610f1e57610f1d611f0f565b5b602002602001015173ffffffffffffffffffffffffffffffffffffffff1673ffffffffffffffffffffffffffffffffffffffff1681526020019081526020016000206000828254610f6f9190611e6f565b92505081905550838160ff1681518110610f8c57610f8b611f0f565b5b602002602001015160036000828254610fa59190611e6f565b92505081905550818160ff1681518110610fc257610fc1611f0f565b5b6020026020010151600b6000878460ff1681518110610fe457610fe3611f0f565b5b602002602001015173ffffffffffffffffffffffffffffffffffffffff1673ffffffffffffffffffffffffffffffffffffffff16815260200190815260200160002081905550611077838260ff168151811061104357611042611f0f565b5b6020026020010151858360ff168151811061106157611060611f0f565b5b602002602001015161169c90919063ffffffff16565b600a6000878460ff168151811061109157611090611f0f565b5b602002602001015173ffffffffffffffffffffffffffffffffffffffff1673ffffffffffffffffffffffffffffffffffffffff16815260200190815260200160002081905550838160ff16815181106110ed576110ec611f0f565b5b60200260200101513373ffffffffffffffffffffffffffffffffffffffff167f9e71bc8eea02a63969f509818f2dafb9254532904319f9dbda79b67bd34a5f3d60405160405180910390a3808061114390611f4b565b915050610eda565b5050505050565b60086020528060005260406000206000915090505481565b6000600160009054906101000a900473ffffffffffffffffffffffffffffffffffffffff16905090565b600e6020528060005260406000206000915090505481565b600c6020528060005260406000206000915054906101000a900460ff1681565b6111d461154f565b806002819055507f0a20771588202779c3c4cb1dedde6e8dcc8dbcb6739073bf52f4a7e8d49040268160405161120a9190611916565b60405180910390a150565b6000600e60003373ffffffffffffffffffffffffffffffffffffffff1673ffffffffffffffffffffffffffffffffffffffff16815260200190815260200160002054036112a357600554600e60003373ffffffffffffffffffffffffffffffffffffffff1673ffffffffffffffffffffffffffffffffffffffff168152602001908152602001600020819055505b6112ab6116b2565b60048190555042600e60003373ffffffffffffffffffffffffffffffffffffffff1673ffffffffffffffffffffffffffffffffffffffff168152602001908152602001600020819055506112fe33611781565b600760003373ffffffffffffffffffffffffffffffffffffffff1673ffffffffffffffffffffffffffffffffffffffff16815260200190815260200160002081905550600454600860003373ffffffffffffffffffffffffffffffffffffffff1673ffffffffffffffffffffffffffffffffffffffff16815260200190815260200160002081905550565b60006113936114ca565b61139b61154f565b478211156113a857600080fd5b60006113b2611840565b73ffffffffffffffffffffffffffffffffffffffff16836040516113d590611dee565b60006040518083038185875af1925050503d8060008114611412576040519150601f19603f3d011682016040523d82523d6000602084013e611417565b606091505b5050905080915050611427611519565b919050565b61143461154f565b600073ffffffffffffffffffffffffffffffffffffffff168173ffffffffffffffffffffffffffffffffffffffff16036114a65760006040517f1e4fbdf700000000000000000000000000000000000000000000000000000000815260040161149d9190611c8c565b60405180910390fd5b6114af816115d6565b50565b600a6020528060005260406000206000915090505481565b60026000540361150f576040517f08c379a000000000000000000000000000000000000000000000000000000000815260040161150690611fc0565b60405180910390fd5b6002600081905550565b6001600081905550565b600081836115319190611d89565b905092915050565b600081836115479190611fe0565b905092915050565b611557611840565b73ffffffffffffffffffffffffffffffffffffffff1661157561116a565b73ffffffffffffffffffffffffffffffffffffffff16146115d457611598611840565b6040517f118cdaa70000000000000000000000000000000000000000000000000000000081526004016115cb9190611c8c565b60405180910390fd5b565b6000600160009054906101000a900473ffffffffffffffffffffffffffffffffffffffff16905081600160006101000a81548173ffffffffffffffffffffffffffffffffffffffff021916908373ffffffffffffffffffffffffffffffffffffffff1602179055508173ffffffffffffffffffffffffffffffffffffffff168173ffffffffffffffffffffffffffffffffffffffff167f8be0079c531659141344cd1fd0a4f28419497f9722a3daafe3b4186f6b6457e060405160405180910390a35050565b600081836116aa9190612051565b905092915050565b600080600354036116c757600454905061177e565b600061171b600e60003373ffffffffffffffffffffffffffffffffffffffff1673ffffffffffffffffffffffffffffffffffffffff168152602001908152602001600020544261152390919063ffffffff16565b905060006117348260025461153990919063ffffffff16565b905061177961176860035461175a670de0b6b3a76400008561153990919063ffffffff16565b61169c90919063ffffffff16565b60045461184890919063ffffffff16565b925050505b90565b6000611839670de0b6b3a7640000600860008573ffffffffffffffffffffffffffffffffffffffff1673ffffffffffffffffffffffffffffffffffffffff168152602001908152602001600020546117d76116b2565b600660008773ffffffffffffffffffffffffffffffffffffffff1673ffffffffffffffffffffffffffffffffffffffff168152602001908152602001600020546118219190611fe0565b61182b9190611d89565b61169c90919063ffffffff16565b9050919050565b600033905090565b600081836118569190611e6f565b905092915050565b6000604051905090565b600080fd5b600080fd5b600073ffffffffffffffffffffffffffffffffffffffff82169050919050565b600061189d82611872565b9050919050565b6118ad81611892565b81146118b857600080fd5b50565b6000813590506118ca816118a4565b92915050565b6000602082840312156118e6576118e5611868565b5b60006118f4848285016118bb565b91505092915050565b6000819050919050565b611910816118fd565b82525050565b600060208201905061192b6000830184611907565b92915050565b61193a816118fd565b811461194557600080fd5b50565b60008135905061195781611931565b92915050565b60006020828403121561197357611972611868565b5b600061198184828501611948565b91505092915050565b600080fd5b6000601f19601f8301169050919050565b7f4e487b7100000000000000000000000000000000000000000000000000000000600052604160045260246000fd5b6119d88261198f565b810181811067ffffffffffffffff821117156119f7576119f66119a0565b5b80604052505050565b6000611a0a61185e565b9050611a1682826119cf565b919050565b600067ffffffffffffffff821115611a3657611a356119a0565b5b602082029050602081019050919050565b600080fd5b6000611a5f611a5a84611a1b565b611a00565b90508083825260208201905060208402830185811115611a8257611a81611a47565b5b835b81811015611aab5780611a9788826118bb565b845260208401935050602081019050611a84565b5050509392505050565b600082601f830112611aca57611ac961198a565b5b8135611ada848260208601611a4c565b91505092915050565b600067ffffffffffffffff821115611afe57611afd6119a0565b5b602082029050602081019050919050565b6000611b22611b1d84611ae3565b611a00565b90508083825260208201905060208402830185811115611b4557611b44611a47565b5b835b81811015611b6e5780611b5a8882611948565b845260208401935050602081019050611b47565b5050509392505050565b600082601f830112611b8d57611b8c61198a565b5b8135611b9d848260208601611b0f565b91505092915050565b60008060008060808587031215611bc057611bbf611868565b5b600085013567ffffffffffffffff811115611bde57611bdd61186d565b5b611bea87828801611ab5565b945050602085013567ffffffffffffffff811115611c0b57611c0a61186d565b5b611c1787828801611b78565b935050604085013567ffffffffffffffff811115611c3857611c3761186d565b5b611c4487828801611b78565b925050606085013567ffffffffffffffff811115611c6557611c6461186d565b5b611c7187828801611b78565b91505092959194509250565b611c8681611892565b82525050565b6000602082019050611ca16000830184611c7d565b92915050565b60008115159050919050565b611cbc81611ca7565b82525050565b6000602082019050611cd76000830184611cb3565b92915050565b600082825260208201905092915050565b7f416d6f756e74206d7573742062652067726561746572207468616e207a65726f600082015250565b6000611d24602083611cdd565b9150611d2f82611cee565b602082019050919050565b60006020820190508181036000830152611d5381611d17565b9050919050565b7f4e487b7100000000000000000000000000000000000000000000000000000000600052601160045260246000fd5b6000611d94826118fd565b9150611d9f836118fd565b9250828203905081811115611db757611db6611d5a565b5b92915050565b600081905092915050565b50565b6000611dd8600083611dbd565b9150611de382611dc8565b600082019050919050565b6000611df982611dcb565b9150819050919050565b7f5472616e73666572204661696c65640000000000000000000000000000000000600082015250565b6000611e39600f83611cdd565b9150611e4482611e03565b602082019050919050565b60006020820190508181036000830152611e6881611e2c565b9050919050565b6000611e7a826118fd565b9150611e85836118fd565b9250828201905080821115611e9d57611e9c611d5a565b5b92915050565b7f4e6f207265776172647320746f20636c61696d00000000000000000000000000600082015250565b6000611ed9601383611cdd565b9150611ee482611ea3565b602082019050919050565b60006020820190508181036000830152611f0881611ecc565b9050919050565b7f4e487b7100000000000000000000000000000000000000000000000000000000600052603260045260246000fd5b600060ff82169050919050565b6000611f5682611f3e565b915060ff8203611f6957611f68611d5a565b5b600182019050919050565b7f5265656e7472616e637947756172643a207265656e7472616e742063616c6c00600082015250565b6000611faa601f83611cdd565b9150611fb582611f74565b602082019050919050565b60006020820190508181036000830152611fd981611f9d565b9050919050565b6000611feb826118fd565b9150611ff6836118fd565b9250828202612004816118fd565b9150828204841483151761201b5761201a611d5a565b5b5092915050565b7f4e487b7100000000000000000000000000000000000000000000000000000000600052601260045260246000fd5b600061205c826118fd565b9150612067836118fd565b92508261207757612076612022565b5b82820490509291505056fea264697066735822122064a4b3b3095a40a692831f575e72c54349bad7a9644d3af399a15ebae062f72764736f6c63430008180033",
    "deployedBytecode": "0x608060405234801561001057600080fd5b50600436106100625760003560e01c806306fdde031461006757806318160ddd1461008557806370a08231146100a35780638da5cb5b146100d357806395d89b41146100f1578063a9059cbb1461010f575b600080fd5b61006f61012b565b60405161007c91906105d2565b60405180910390f35b61008d6101b9565b60405161009a919061060d565b60405180910390f35b6100bd60048036038101906100b8919061068b565b6101bf565b6040516100ca919061060d565b60405180910390f35b6100db610208565b6040516100e891906106c7565b60405180910390f35b6100f961022e565b60405161010691906105d2565b60405180910390f35b6101296004803603810190610124919061070e565b6102bc565b005b600080546101389061077d565b80601f01602080910402602001604051908101604052809291908181526020018280546101649061077d565b80156101b15780601f10610186576101008083540402835291602001916101b1565b820191906000526020600020905b81548152906001019060200180831161019457829003601f168201915b505050505081565b60025481565b6000600460008373ffffffffffffffffffffffffffffffffffffffff1673ffffffffffffffffffffffffffffffffffffffff168152602001908152602001600020549050919050565b600360009054906101000a900473ffffffffffffffffffffffffffffffffffffffff1681565b6001805461023b9061077d565b80601f01602080910402602001604051908101604052809291908181526020018280546102679061077d565b80156102b45780601f10610289576101008083540402835291602001916102b4565b820191906000526020600020905b81548152906001019060200180831161029757829003601f168201915b505050505081565b80600460003373ffffffffffffffffffffffffffffffffffffffff1673ffffffffffffffffffffffffffffffffffffffff16815260200190815260200160002054101561033e576040517f08c379a0000000000000000000000000000000000000000000000000000000008152600401610335906107fa565b60405180910390fd5b6103626040518060600160405280602481526020016108fe60249139338484610477565b80600460003373ffffffffffffffffffffffffffffffffffffffff1673ffffffffffffffffffffffffffffffffffffffff16815260200190815260200160002060008282546103b19190610849565b9250508190555080600460008473ffffffffffffffffffffffffffffffffffffffff1673ffffffffffffffffffffffffffffffffffffffff1681526020019081526020016000206000828254610407919061087d565b925050819055508173ffffffffffffffffffffffffffffffffffffffff163373ffffffffffffffffffffffffffffffffffffffff167fddf252ad1be2c89b69c2b068fc378daa952ba7f163c4a11628f55a4df523b3ef8360405161046b919061060d565b60405180910390a35050565b6105138484848460405160240161049194939291906108b1565b6040516020818303038152906040527f8ef3f399000000000000000000000000000000000000000000000000000000007bffffffffffffffffffffffffffffffffffffffffffffffffffffffff19166020820180517bffffffffffffffffffffffffffffffffffffffffffffffffffffffff8381831617835250505050610519565b50505050565b60008151905060006a636f6e736f6c652e6c6f679050602083016000808483855afa5050505050565b600081519050919050565b600082825260208201905092915050565b60005b8381101561057c578082015181840152602081019050610561565b60008484015250505050565b6000601f19601f8301169050919050565b60006105a482610542565b6105ae818561054d565b93506105be81856020860161055e565b6105c781610588565b840191505092915050565b600060208201905081810360008301526105ec8184610599565b905092915050565b6000819050919050565b610607816105f4565b82525050565b600060208201905061062260008301846105fe565b92915050565b600080fd5b600073ffffffffffffffffffffffffffffffffffffffff82169050919050565b60006106588261062d565b9050919050565b6106688161064d565b811461067357600080fd5b50565b6000813590506106858161065f565b92915050565b6000602082840312156106a1576106a0610628565b5b60006106af84828501610676565b91505092915050565b6106c18161064d565b82525050565b60006020820190506106dc60008301846106b8565b92915050565b6106eb816105f4565b81146106f657600080fd5b50565b600081359050610708816106e2565b92915050565b6000806040838503121561072557610724610628565b5b600061073385828601610676565b9250506020610744858286016106f9565b9150509250929050565b7f4e487b7100000000000000000000000000000000000000000000000000000000600052602260045260246000fd5b6000600282049050600182168061079557607f821691505b6020821081036107a8576107a761074e565b5b50919050565b7f4e6f7420656e6f75676820746f6b656e73000000000000000000000000000000600082015250565b60006107e460118361054d565b91506107ef826107ae565b602082019050919050565b60006020820190508181036000830152610813816107d7565b9050919050565b7f4e487b7100000000000000000000000000000000000000000000000000000000600052601160045260246000fd5b6000610854826105f4565b915061085f836105f4565b92508282039050818111156108775761087661081a565b5b92915050565b6000610888826105f4565b9150610893836105f4565b92508282019050808211156108ab576108aa61081a565b5b92915050565b600060808201905081810360008301526108cb8187610599565b90506108da60208301866106b8565b6108e760408301856106b8565b6108f460608301846105fe565b9594505050505056fe5472616e7366657272696e672066726f6d20257320746f20257320257320746f6b656e73a2646970667358221220492eb00e696a134361cbc63e660c33565a1081cd99c7d98689a6a40a6811aa9e64736f6c63430008110033",
    "linkReferences": {},
    "deployedLinkReferences": {}
}