{
    "_format": "hh-sol-artifact-1",
    "contractName": "Staking",
    "sourceName": "contracts/Staking.sol",
    "abi": [
        {
            "inputs": [
                {
                    "internalType": "address",
                    "name": "initialOwner",
                    "type": "address"
                }
            ],
            "stateMutability": "nonpayable",
            "type": "constructor"
        },
        {
            "inputs": [
                {
                    "internalType": "address",
                    "name": "owner",
                    "type": "address"
                }
            ],
            "name": "OwnableInvalidOwner",
            "type": "error"
        },
        {
            "inputs": [
                {
                    "internalType": "address",
                    "name": "account",
                    "type": "address"
                }
            ],
            "name": "OwnableUnauthorizedAccount",
            "type": "error"
        },
        {
            "anonymous": false,
            "inputs": [
                {
                    "indexed": true,
                    "internalType": "address",
                    "name": "previousOwner",
                    "type": "address"
                },
                {
                    "indexed": true,
                    "internalType": "address",
                    "name": "newOwner",
                    "type": "address"
                }
            ],
            "name": "OwnershipTransferred",
            "type": "event"
        },
        {
            "anonymous": false,
            "inputs": [
                {
                    "indexed": true,
                    "internalType": "address",
                    "name": "user",
                    "type": "address"
                },
                {
                    "indexed": true,
                    "internalType": "uint256",
                    "name": "amount",
                    "type": "uint256"
                }
            ],
            "name": "RewardsClaimed",
            "type": "event"
        },
        {
            "anonymous": false,
            "inputs": [
                {
                    "indexed": true,
                    "internalType": "address",
                    "name": "user",
                    "type": "address"
                },
                {
                    "indexed": true,
                    "internalType": "uint256",
                    "name": "amount",
                    "type": "uint256"
                }
            ],
            "name": "Staked",
            "type": "event"
        },
        {
            "anonymous": false,
            "inputs": [
                {
                    "indexed": true,
                    "internalType": "address",
                    "name": "user",
                    "type": "address"
                },
                {
                    "indexed": true,
                    "internalType": "uint256",
                    "name": "amount",
                    "type": "uint256"
                }
            ],
            "name": "Withdrawn",
            "type": "event"
        },
        {
            "stateMutability": "payable",
            "type": "fallback"
        },
        {
            "inputs": [],
            "name": "REWARD_RATE",
            "outputs": [
                {
                    "internalType": "uint256",
                    "name": "",
                    "type": "uint256"
                }
            ],
            "stateMutability": "view",
            "type": "function"
        },
        {
            "inputs": [],
            "name": "getReward",
            "outputs": [],
            "stateMutability": "nonpayable",
            "type": "function"
        },
        {
            "inputs": [
                {
                    "internalType": "address[]",
                    "name": "_buyers",
                    "type": "address[]"
                },
                {
                    "internalType": "uint256[]",
                    "name": "_amount",
                    "type": "uint256[]"
                },
                {
                    "internalType": "uint256[]",
                    "name": "_vestTime",
                    "type": "uint256[]"
                },
                {
                    "internalType": "uint256[]",
                    "name": "_lockedTime",
                    "type": "uint256[]"
                }
            ],
            "name": "giveUserInitialBalance",
            "outputs": [],
            "stateMutability": "nonpayable",
            "type": "function"
        },
        {
            "inputs": [
                {
                    "internalType": "address",
                    "name": "",
                    "type": "address"
                }
            ],
            "name": "isUnLocked",
            "outputs": [
                {
                    "internalType": "bool",
                    "name": "",
                    "type": "bool"
                }
            ],
            "stateMutability": "view",
            "type": "function"
        },
        {
            "inputs": [
                {
                    "internalType": "address",
                    "name": "",
                    "type": "address"
                }
            ],
            "name": "lastTimeUnlocked",
            "outputs": [
                {
                    "internalType": "uint256",
                    "name": "",
                    "type": "uint256"
                }
            ],
            "stateMutability": "view",
            "type": "function"
        },
        {
            "inputs": [
                {
                    "internalType": "address",
                    "name": "",
                    "type": "address"
                }
            ],
            "name": "lastUpdatedTime",
            "outputs": [
                {
                    "internalType": "uint256",
                    "name": "",
                    "type": "uint256"
                }
            ],
            "stateMutability": "view",
            "type": "function"
        },
        {
            "inputs": [
                {
                    "internalType": "address",
                    "name": "",
                    "type": "address"
                }
            ],
            "name": "lockedTime",
            "outputs": [
                {
                    "internalType": "uint256",
                    "name": "",
                    "type": "uint256"
                }
            ],
            "stateMutability": "view",
            "type": "function"
        },
        {
            "inputs": [],
            "name": "owner",
            "outputs": [
                {
                    "internalType": "address",
                    "name": "",
                    "type": "address"
                }
            ],
            "stateMutability": "view",
            "type": "function"
        },
        {
            "inputs": [],
            "name": "renounceOwnership",
            "outputs": [],
            "stateMutability": "nonpayable",
            "type": "function"
        },
        {
            "inputs": [
                {
                    "internalType": "address",
                    "name": "",
                    "type": "address"
                }
            ],
            "name": "rewards",
            "outputs": [
                {
                    "internalType": "uint256",
                    "name": "",
                    "type": "uint256"
                }
            ],
            "stateMutability": "view",
            "type": "function"
        },
        {
            "inputs": [],
            "name": "stake",
            "outputs": [],
            "stateMutability": "payable",
            "type": "function"
        },
        {
            "inputs": [
                {
                    "internalType": "address",
                    "name": "",
                    "type": "address"
                }
            ],
            "name": "stakedBalance",
            "outputs": [
                {
                    "internalType": "uint256",
                    "name": "",
                    "type": "uint256"
                }
            ],
            "stateMutability": "view",
            "type": "function"
        },
        {
            "inputs": [],
            "name": "totalStakedTokens",
            "outputs": [
                {
                    "internalType": "uint256",
                    "name": "",
                    "type": "uint256"
                }
            ],
            "stateMutability": "view",
            "type": "function"
        },
        {
            "inputs": [
                {
                    "internalType": "address",
                    "name": "newOwner",
                    "type": "address"
                }
            ],
            "name": "transferOwnership",
            "outputs": [],
            "stateMutability": "nonpayable",
            "type": "function"
        },
        {
            "inputs": [
                {
                    "internalType": "address",
                    "name": "",
                    "type": "address"
                }
            ],
            "name": "unlockedRate",
            "outputs": [
                {
                    "internalType": "uint256",
                    "name": "",
                    "type": "uint256"
                }
            ],
            "stateMutability": "view",
            "type": "function"
        },
        {
            "inputs": [],
            "name": "updateRewardFunc",
            "outputs": [],
            "stateMutability": "nonpayable",
            "type": "function"
        },
        {
            "inputs": [],
            "name": "updateUnlockedNew",
            "outputs": [],
            "stateMutability": "nonpayable",
            "type": "function"
        },
        {
            "inputs": [
                {
                    "internalType": "address",
                    "name": "",
                    "type": "address"
                }
            ],
            "name": "userRewardPerTokenPaid",
            "outputs": [
                {
                    "internalType": "uint256",
                    "name": "",
                    "type": "uint256"
                }
            ],
            "stateMutability": "view",
            "type": "function"
        },
        {
            "inputs": [
                {
                    "internalType": "address",
                    "name": "",
                    "type": "address"
                }
            ],
            "name": "vestedTokens",
            "outputs": [
                {
                    "internalType": "uint256",
                    "name": "",
                    "type": "uint256"
                }
            ],
            "stateMutability": "view",
            "type": "function"
        },
        {
            "inputs": [
                {
                    "internalType": "uint256",
                    "name": "amount",
                    "type": "uint256"
                }
            ],
            "name": "withdraw",
            "outputs": [],
            "stateMutability": "nonpayable",
            "type": "function"
        },
        {
            "inputs": [
                {
                    "internalType": "uint256",
                    "name": "balance",
                    "type": "uint256"
                }
            ],
            "name": "withdrawBalance",
            "outputs": [
                {
                    "internalType": "bool",
                    "name": "",
                    "type": "bool"
                }
            ],
            "stateMutability": "payable",
            "type": "function"
        }
    ],
    "bytecode": "608060405234801561001057600080fd5b50600160005561001f33610028565b4260045561007a565b600180546001600160a01b038381166001600160a01b0319831681179093556040519116919082907f8be0079c531659141344cd1fd0a4f28419497f9722a3daafe3b4186f6b6457e090600090a35050565b6111d9806100896000396000f3fe6080604052600436106101215760003560e01c806360217267116100a55780638f427ff21161006c5780638f427ff214610323578063c2d08cba14610350578063d3cb9ece14610390578063da76d5cd146103a5578063f2fde38b146103b8578063fc44516a146103d857005b8063602172671461026c578063715018a61461029957806387ae3ca9146102ae5780638b876347146102ce5780638da5cb5b146102fb57005b80633d18b912116100e95780633d18b912146101ce5780633dee0397146101e357806348ad0e89146102105780635167071a1461023d5780635997bb371461025257005b80630700037d146101235780632e1a7d4d146101635780633266fb05146101835780633a4b66f1146101b05780633ae73259146101b8575b005b34801561012f57600080fd5b5061015061013e366004610ee2565b60066020526000908152604090205481565b6040519081526020015b60405180910390f35b34801561016f57600080fd5b5061012161017e366004610efd565b610405565b34801561018f57600080fd5b5061015061019e366004610ee2565b600a6020526000908152604090205481565b6101216105b1565b3480156101c457600080fd5b5061015060025481565b3480156101da57600080fd5b506101216106b1565b3480156101ef57600080fd5b506101506101fe366004610ee2565b60086020526000908152604090205481565b34801561021c57600080fd5b5061015061022b366004610ee2565b600c6020526000908152604090205481565b34801561024957600080fd5b50610121610800565b34801561025e57600080fd5b506101506509184e72a00081565b34801561027857600080fd5b50610150610287366004610ee2565b60056020526000908152604090205481565b3480156102a557600080fd5b5061012161091e565b3480156102ba57600080fd5b506101216102c9366004610ff0565b610930565b3480156102da57600080fd5b506101506102e9366004610ee2565b60076020526000908152604090205481565b34801561030757600080fd5b506001546040516001600160a01b03909116815260200161015a565b34801561032f57600080fd5b5061015061033e366004610ee2565b600d6020526000908152604090205481565b34801561035c57600080fd5b5061038061036b366004610ee2565b600b6020526000908152604090205460ff1681565b604051901515815260200161015a565b34801561039c57600080fd5b50610121610b4e565b6103806103b3366004610efd565b610bc2565b3480156103c457600080fd5b506101216103d3366004610ee2565b610c3d565b3480156103e457600080fd5b506101506103f3366004610ee2565b60096020526000908152604090205481565b61040d610cb3565b610415610b4e565b61041d610800565b60008111801561043c5750336000908152600560205260409020548111155b61048d5760405162461bcd60e51b815260206004820181905260248201527f416d6f756e74206d7573742062652067726561746572207468616e207a65726f60448201526064015b60405180910390fd5b806002600082825461049f919061110f565b909155505033600090815260056020526040812080548392906104c390849061110f565b909155505033600090815260086020526040812080548392906104e790849061110f565b9091555050604051819033907f7084f5476618d8e60b11ef0d7d3f06914655adb8793e28ff7f018d4c76d505d590600090a3604051600090339083908381818185875af1925050503d806000811461055b576040519150601f19603f3d011682016040523d82523d6000602084013e610560565b606091505b50509050806105a35760405162461bcd60e51b815260206004820152600f60248201526e151c985b9cd9995c8811985a5b1959608a1b6044820152606401610484565b506105ae6001600055565b50565b6105b9610cb3565b6105c1610b4e565b6105c9610800565b600034116106195760405162461bcd60e51b815260206004820181905260248201527f416d6f756e74206d7573742062652067726561746572207468616e207a65726f6044820152606401610484565b346002600082825461062b9190611122565b9091555050336000908152600560205260408120805434929061064f908490611122565b90915550503360009081526008602052604081208054349290610673908490611122565b9091555050604051349033907f9e71bc8eea02a63969f509818f2dafb9254532904319f9dbda79b67bd34a5f3d90600090a36106af6001600055565b565b6106b9610cb3565b6106c1610b4e565b3360009081526006602052604090205480158015906106ee57503360009081526006602052604090205481105b6107305760405162461bcd60e51b81526020600482015260136024820152724e6f207265776172647320746f20636c61696d60681b6044820152606401610484565b33600081815260066020526040808220829055518392917ffc30cddea38e2bf4d6ea7d3f9ed3b6ad7f176419f4963bd81318067a4aee73fe91a3604051600090339083908381818185875af1925050503d80600081146107ac576040519150601f19603f3d011682016040523d82523d6000602084013e6107b1565b606091505b50509050806107f45760405162461bcd60e51b815260206004820152600f60248201526e151c985b9cd9995c8811985a5b1959608a1b6044820152606401610484565b50506106af6001600055565b336000908152600c6020526040812054900361082a57600454336000908152600c60205260409020555b336000908152600c6020526040812054610845904290610d0c565b336000908152600a6020526040902054909150811180156108765750336000908152600b602052604090205460ff16155b156108b257336000908152600a6020526040902054610895908261110f565b336000908152600b60205260409020805460ff1916600117905590505b336000908152600b602052604090205460ff16156105ae57336000908152600c6020908152604080832042905560099091528120546108f19083610d21565b33600090815260086020526040812080549293508392909190610915908490611122565b90915550505050565b610926610d2d565b6106af6000610d87565b610938610d2d565b60005b84518160ff161015610b4757838160ff168151811061095c5761095c611135565b602002602001015160056000878460ff168151811061097d5761097d611135565b60200260200101516001600160a01b03166001600160a01b0316815260200190815260200160002060008282546109b49190611122565b92505081905550838160ff16815181106109d0576109d0611135565b6020026020010151600260008282546109e99190611122565b92505081905550818160ff1681518110610a0557610a05611135565b6020026020010151600a6000878460ff1681518110610a2657610a26611135565b60200260200101516001600160a01b03166001600160a01b0316815260200190815260200160002081905550610a9d838260ff1681518110610a6a57610a6a611135565b6020026020010151858360ff1681518110610a8757610a87611135565b6020026020010151610dd990919063ffffffff16565b60096000878460ff1681518110610ab657610ab6611135565b60200260200101516001600160a01b03166001600160a01b0316815260200190815260200160002081905550838160ff1681518110610af757610af7611135565b6020026020010151336001600160a01b03167f9e71bc8eea02a63969f509818f2dafb9254532904319f9dbda79b67bd34a5f3d60405160405180910390a380610b3f8161114b565b91505061093b565b5050505050565b336000908152600d60205260408120549003610b7857600454336000908152600d60205260409020555b610b80610de5565b600355336000818152600d60205260409020429055610b9e90610e63565b33600090815260066020908152604080832093909355600354600790915291902055565b6000610bcc610cb3565b610bd4610d2d565b47821115610be157600080fd5b604051600090339084908381818185875af1925050503d8060008114610c23576040519150601f19603f3d011682016040523d82523d6000602084013e610c28565b606091505b509092505050610c386001600055565b919050565b610c45610d2d565b6001600160a01b038116610caa5760405162461bcd60e51b815260206004820152602660248201527f4f776e61626c653a206e6577206f776e657220697320746865207a65726f206160448201526564647265737360d01b6064820152608401610484565b6105ae81610d87565b600260005403610d055760405162461bcd60e51b815260206004820152601f60248201527f5265656e7472616e637947756172643a207265656e7472616e742063616c6c006044820152606401610484565b6002600055565b6000610d18828461110f565b90505b92915050565b6000610d18828461116a565b6001546001600160a01b031633146106af5760405162461bcd60e51b815260206004820181905260248201527f4f776e61626c653a2063616c6c6572206973206e6f7420746865206f776e65726044820152606401610484565b600180546001600160a01b038381166001600160a01b0319831681179093556040519116919082907f8be0079c531659141344cd1fd0a4f28419497f9722a3daafe3b4186f6b6457e090600090a35050565b6000610d188284611181565b6000600254600003610df8575060035490565b336000908152600d6020526040812054610e13904290610d0c565b90506000610e276509184e72a00083610d21565b9050610e5c610e53600254610e4d670de0b6b3a764000085610d2190919063ffffffff16565b90610dd9565b60035490610ebf565b9250505090565b6001600160a01b038116600090815260076020526040812054610d1b90670de0b6b3a764000090610e92610de5565b6001600160a01b038616600090815260056020526040902054610eb5919061116a565b610e4d919061110f565b6000610d188284611122565b80356001600160a01b0381168114610c3857600080fd5b600060208284031215610ef457600080fd5b610d1882610ecb565b600060208284031215610f0f57600080fd5b5035919050565b634e487b7160e01b600052604160045260246000fd5b604051601f8201601f1916810167ffffffffffffffff81118282101715610f5557610f55610f16565b604052919050565b600067ffffffffffffffff821115610f7757610f77610f16565b5060051b60200190565b600082601f830112610f9257600080fd5b81356020610fa7610fa283610f5d565b610f2c565b8083825260208201915060208460051b870101935086841115610fc957600080fd5b602086015b84811015610fe55780358352918301918301610fce565b509695505050505050565b6000806000806080858703121561100657600080fd5b843567ffffffffffffffff8082111561101e57600080fd5b818701915087601f83011261103257600080fd5b81356020611042610fa283610f5d565b82815260059290921b8401810191818101908b84111561106157600080fd5b948201945b838610156110865761107786610ecb565b82529482019490820190611066565b9850508801359250508082111561109c57600080fd5b6110a888838901610f81565b945060408701359150808211156110be57600080fd5b6110ca88838901610f81565b935060608701359150808211156110e057600080fd5b506110ed87828801610f81565b91505092959194509250565b634e487b7160e01b600052601160045260246000fd5b81810381811115610d1b57610d1b6110f9565b80820180821115610d1b57610d1b6110f9565b634e487b7160e01b600052603260045260246000fd5b600060ff821660ff8103611161576111616110f9565b60010192915050565b8082028115828204841417610d1b57610d1b6110f9565b60008261119e57634e487b7160e01b600052601260045260246000fd5b50049056fea2646970667358221220de2fcb36b9ccc764a30a04406b71107610fa7fed7146d538424959204f2f580464736f6c63430008180033",
    "deployedBytecode": "0x608060405234801561001057600080fd5b50600436106100625760003560e01c806306fdde031461006757806318160ddd1461008557806370a08231146100a35780638da5cb5b146100d357806395d89b41146100f1578063a9059cbb1461010f575b600080fd5b61006f61012b565b60405161007c91906105d2565b60405180910390f35b61008d6101b9565b60405161009a919061060d565b60405180910390f35b6100bd60048036038101906100b8919061068b565b6101bf565b6040516100ca919061060d565b60405180910390f35b6100db610208565b6040516100e891906106c7565b60405180910390f35b6100f961022e565b60405161010691906105d2565b60405180910390f35b6101296004803603810190610124919061070e565b6102bc565b005b600080546101389061077d565b80601f01602080910402602001604051908101604052809291908181526020018280546101649061077d565b80156101b15780601f10610186576101008083540402835291602001916101b1565b820191906000526020600020905b81548152906001019060200180831161019457829003601f168201915b505050505081565b60025481565b6000600460008373ffffffffffffffffffffffffffffffffffffffff1673ffffffffffffffffffffffffffffffffffffffff168152602001908152602001600020549050919050565b600360009054906101000a900473ffffffffffffffffffffffffffffffffffffffff1681565b6001805461023b9061077d565b80601f01602080910402602001604051908101604052809291908181526020018280546102679061077d565b80156102b45780601f10610289576101008083540402835291602001916102b4565b820191906000526020600020905b81548152906001019060200180831161029757829003601f168201915b505050505081565b80600460003373ffffffffffffffffffffffffffffffffffffffff1673ffffffffffffffffffffffffffffffffffffffff16815260200190815260200160002054101561033e576040517f08c379a0000000000000000000000000000000000000000000000000000000008152600401610335906107fa565b60405180910390fd5b6103626040518060600160405280602481526020016108fe60249139338484610477565b80600460003373ffffffffffffffffffffffffffffffffffffffff1673ffffffffffffffffffffffffffffffffffffffff16815260200190815260200160002060008282546103b19190610849565b9250508190555080600460008473ffffffffffffffffffffffffffffffffffffffff1673ffffffffffffffffffffffffffffffffffffffff1681526020019081526020016000206000828254610407919061087d565b925050819055508173ffffffffffffffffffffffffffffffffffffffff163373ffffffffffffffffffffffffffffffffffffffff167fddf252ad1be2c89b69c2b068fc378daa952ba7f163c4a11628f55a4df523b3ef8360405161046b919061060d565b60405180910390a35050565b6105138484848460405160240161049194939291906108b1565b6040516020818303038152906040527f8ef3f399000000000000000000000000000000000000000000000000000000007bffffffffffffffffffffffffffffffffffffffffffffffffffffffff19166020820180517bffffffffffffffffffffffffffffffffffffffffffffffffffffffff8381831617835250505050610519565b50505050565b60008151905060006a636f6e736f6c652e6c6f679050602083016000808483855afa5050505050565b600081519050919050565b600082825260208201905092915050565b60005b8381101561057c578082015181840152602081019050610561565b60008484015250505050565b6000601f19601f8301169050919050565b60006105a482610542565b6105ae818561054d565b93506105be81856020860161055e565b6105c781610588565b840191505092915050565b600060208201905081810360008301526105ec8184610599565b905092915050565b6000819050919050565b610607816105f4565b82525050565b600060208201905061062260008301846105fe565b92915050565b600080fd5b600073ffffffffffffffffffffffffffffffffffffffff82169050919050565b60006106588261062d565b9050919050565b6106688161064d565b811461067357600080fd5b50565b6000813590506106858161065f565b92915050565b6000602082840312156106a1576106a0610628565b5b60006106af84828501610676565b91505092915050565b6106c18161064d565b82525050565b60006020820190506106dc60008301846106b8565b92915050565b6106eb816105f4565b81146106f657600080fd5b50565b600081359050610708816106e2565b92915050565b6000806040838503121561072557610724610628565b5b600061073385828601610676565b9250506020610744858286016106f9565b9150509250929050565b7f4e487b7100000000000000000000000000000000000000000000000000000000600052602260045260246000fd5b6000600282049050600182168061079557607f821691505b6020821081036107a8576107a761074e565b5b50919050565b7f4e6f7420656e6f75676820746f6b656e73000000000000000000000000000000600082015250565b60006107e460118361054d565b91506107ef826107ae565b602082019050919050565b60006020820190508181036000830152610813816107d7565b9050919050565b7f4e487b7100000000000000000000000000000000000000000000000000000000600052601160045260246000fd5b6000610854826105f4565b915061085f836105f4565b92508282039050818111156108775761087661081a565b5b92915050565b6000610888826105f4565b9150610893836105f4565b92508282019050808211156108ab576108aa61081a565b5b92915050565b600060808201905081810360008301526108cb8187610599565b90506108da60208301866106b8565b6108e760408301856106b8565b6108f460608301846105fe565b9594505050505056fe5472616e7366657272696e672066726f6d20257320746f20257320257320746f6b656e73a2646970667358221220492eb00e696a134361cbc63e660c33565a1081cd99c7d98689a6a40a6811aa9e64736f6c63430008110033",
    "linkReferences": {},
    "deployedLinkReferences": {}
}