{
    "_format": "hh-sol-artifact-1",
    "contractName": "Staking",
    "sourceName": "contracts/Staking.sol",
    "abi": [
        {
            "inputs": [],
            "stateMutability": "nonpayable",
            "type": "constructor"
        },
        {
            "anonymous": false,
            "inputs": [
                {
                    "indexed": true,
                    "internalType": "address",
                    "name": "previousOwner",
                    "type": "address"
                },
                {
                    "indexed": true,
                    "internalType": "address",
                    "name": "newOwner",
                    "type": "address"
                }
            ],
            "name": "OwnershipTransferred",
            "type": "event"
        },
        {
            "anonymous": false,
            "inputs": [
                {
                    "indexed": true,
                    "internalType": "address",
                    "name": "user",
                    "type": "address"
                },
                {
                    "indexed": true,
                    "internalType": "uint256",
                    "name": "amount",
                    "type": "uint256"
                }
            ],
            "name": "RewardsClaimed",
            "type": "event"
        },
        {
            "anonymous": false,
            "inputs": [
                {
                    "indexed": true,
                    "internalType": "address",
                    "name": "user",
                    "type": "address"
                },
                {
                    "indexed": true,
                    "internalType": "uint256",
                    "name": "amount",
                    "type": "uint256"
                }
            ],
            "name": "Staked",
            "type": "event"
        },
        {
            "anonymous": false,
            "inputs": [
                {
                    "indexed": true,
                    "internalType": "address",
                    "name": "user",
                    "type": "address"
                },
                {
                    "indexed": true,
                    "internalType": "uint256",
                    "name": "amount",
                    "type": "uint256"
                }
            ],
            "name": "Withdrawn",
            "type": "event"
        },
        {
            "stateMutability": "payable",
            "type": "fallback"
        },
        {
            "inputs": [],
            "name": "REWARD_RATE",
            "outputs": [
                {
                    "internalType": "uint256",
                    "name": "",
                    "type": "uint256"
                }
            ],
            "stateMutability": "view",
            "type": "function"
        },
        {
            "inputs": [
                {
                    "internalType": "address",
                    "name": "_account",
                    "type": "address"
                }
            ],
            "name": "earned",
            "outputs": [
                {
                    "internalType": "uint256",
                    "name": "",
                    "type": "uint256"
                }
            ],
            "stateMutability": "view",
            "type": "function"
        },
        {
            "inputs": [],
            "name": "getReward",
            "outputs": [],
            "stateMutability": "nonpayable",
            "type": "function"
        },
        {
            "inputs": [
                {
                    "internalType": "address[]",
                    "name": "_buyers",
                    "type": "address[]"
                },
                {
                    "internalType": "uint256[]",
                    "name": "_amount",
                    "type": "uint256[]"
                },
                {
                    "internalType": "uint256[]",
                    "name": "_vestTime",
                    "type": "uint256[]"
                }
            ],
            "name": "giveUserInitialBalance",
            "outputs": [],
            "stateMutability": "nonpayable",
            "type": "function"
        },
        {
            "inputs": [],
            "name": "lastTimeUnlocked",
            "outputs": [
                {
                    "internalType": "uint256",
                    "name": "",
                    "type": "uint256"
                }
            ],
            "stateMutability": "view",
            "type": "function"
        },
        {
            "inputs": [],
            "name": "lastUpdatedTime",
            "outputs": [
                {
                    "internalType": "uint256",
                    "name": "",
                    "type": "uint256"
                }
            ],
            "stateMutability": "view",
            "type": "function"
        },
        {
            "inputs": [],
            "name": "owner",
            "outputs": [
                {
                    "internalType": "address",
                    "name": "",
                    "type": "address"
                }
            ],
            "stateMutability": "view",
            "type": "function"
        },
        {
            "inputs": [],
            "name": "renounceOwnership",
            "outputs": [],
            "stateMutability": "nonpayable",
            "type": "function"
        },
        {
            "inputs": [],
            "name": "rewardPerToken",
            "outputs": [
                {
                    "internalType": "uint256",
                    "name": "",
                    "type": "uint256"
                }
            ],
            "stateMutability": "view",
            "type": "function"
        },
        {
            "inputs": [],
            "name": "rewardPerTokenStored",
            "outputs": [
                {
                    "internalType": "uint256",
                    "name": "",
                    "type": "uint256"
                }
            ],
            "stateMutability": "view",
            "type": "function"
        },
        {
            "inputs": [
                {
                    "internalType": "address",
                    "name": "",
                    "type": "address"
                }
            ],
            "name": "rewards",
            "outputs": [
                {
                    "internalType": "uint256",
                    "name": "",
                    "type": "uint256"
                }
            ],
            "stateMutability": "view",
            "type": "function"
        },
        {
            "inputs": [],
            "name": "stake",
            "outputs": [],
            "stateMutability": "payable",
            "type": "function"
        },
        {
            "inputs": [
                {
                    "internalType": "address",
                    "name": "",
                    "type": "address"
                }
            ],
            "name": "stakedBalance",
            "outputs": [
                {
                    "internalType": "uint256",
                    "name": "",
                    "type": "uint256"
                }
            ],
            "stateMutability": "view",
            "type": "function"
        },
        {
            "inputs": [],
            "name": "totalStakedTokens",
            "outputs": [
                {
                    "internalType": "uint256",
                    "name": "",
                    "type": "uint256"
                }
            ],
            "stateMutability": "view",
            "type": "function"
        },
        {
            "inputs": [
                {
                    "internalType": "address",
                    "name": "newOwner",
                    "type": "address"
                }
            ],
            "name": "transferOwnership",
            "outputs": [],
            "stateMutability": "nonpayable",
            "type": "function"
        },
        {
            "inputs": [
                {
                    "internalType": "address",
                    "name": "",
                    "type": "address"
                }
            ],
            "name": "unlockedRate",
            "outputs": [
                {
                    "internalType": "uint256",
                    "name": "",
                    "type": "uint256"
                }
            ],
            "stateMutability": "view",
            "type": "function"
        },
        {
            "inputs": [
                {
                    "internalType": "address",
                    "name": "",
                    "type": "address"
                }
            ],
            "name": "unlockedTokens",
            "outputs": [
                {
                    "internalType": "uint256",
                    "name": "",
                    "type": "uint256"
                }
            ],
            "stateMutability": "view",
            "type": "function"
        },
        {
            "inputs": [
                {
                    "internalType": "address",
                    "name": "account",
                    "type": "address"
                }
            ],
            "name": "updateRewardFunc",
            "outputs": [],
            "stateMutability": "nonpayable",
            "type": "function"
        },
        {
            "inputs": [],
            "name": "updateUnlockedNew",
            "outputs": [],
            "stateMutability": "nonpayable",
            "type": "function"
        },
        {
            "inputs": [
                {
                    "internalType": "address",
                    "name": "",
                    "type": "address"
                }
            ],
            "name": "userRewardPerTokenPaid",
            "outputs": [
                {
                    "internalType": "uint256",
                    "name": "",
                    "type": "uint256"
                }
            ],
            "stateMutability": "view",
            "type": "function"
        },
        {
            "inputs": [
                {
                    "internalType": "uint256",
                    "name": "amount",
                    "type": "uint256"
                }
            ],
            "name": "withdraw",
            "outputs": [],
            "stateMutability": "nonpayable",
            "type": "function"
        },
        {
            "inputs": [
                {
                    "internalType": "uint256",
                    "name": "balance",
                    "type": "uint256"
                }
            ],
            "name": "withdrawBalance",
            "outputs": [
                {
                    "internalType": "bool",
                    "name": "",
                    "type": "bool"
                }
            ],
            "stateMutability": "payable",
            "type": "function"
        }
    ],
    "bytecode": "608060405234801561000f575f80fd5b50604051610f1b380380610f1b83398101604081905261002e9161005b565b60015f81905580546001600160a01b0319166001600160a01b039290921691909117905542600555610088565b5f6020828403121561006b575f80fd5b81516001600160a01b0381168114610081575f80fd5b9392505050565b610e86806100955f395ff3fe608060405234801561000f575f80fd5b506004361061011b575f3560e01c8063632447c9116100a9578063bf8568951161006e578063bf85689514610262578063cd3daf9d1461026b578063df136d6514610273578063ef1991871461027c578063fc44516a14610285575f80fd5b8063632447c9146101d3578063836115fe146101e65780638b87634714610205578063a694fc3a14610224578063adca9b7214610237575f80fd5b80633d18b912116100ef5780633d18b912146101825780635167071a1461018a5780635997bb371461019257806359d9f01f146101a157806360217267146101b4575f80fd5b80628cc2621461011f5780630700037d146101455780632e1a7d4d146101645780633ae7325914610179575b5f80fd5b61013261012d366004610bb3565b6102a4565b6040519081526020015b60405180910390f35b610132610153366004610bb3565b60076020525f908152604090205481565b610177610172366004610bcc565b6102f6565b005b61013260025481565b610177610566565b6101776106c2565b61013267016345785d8a000081565b6101776101af366004610cb3565b61072c565b6101326101c2366004610bb3565b60066020525f908152604090205481565b6101776101e1366004610bb3565b6108fd565b6101326101f4366004610bb3565b60096020525f908152604090205481565b610132610213366004610bb3565b60086020525f908152604090205481565b610177610232366004610bcc565b610942565b60015461024a906001600160a01b031681565b6040516001600160a01b03909116815260200161013c565b61013260045481565b610132610aa8565b61013260035481565b61013260055481565b610132610293366004610bb3565b600a6020525f908152604090205481565b6001600160a01b0381165f908152600860205260408120546102c4610aa8565b6102ce9190610da3565b6001600160a01b0383165f908152600660205260409020546102f09190610db6565b92915050565b6102fe610b0e565b5f61031460055442610b6590919063ffffffff16565b42600555335f908152600a60205260408120549192509061034290603c9061033c9085610b77565b90610b82565b335f90815260096020526040812080549293508392909190610365908490610dcd565b9091555050335f9081526009602052604090205483106103c35760405162461bcd60e51b815260206004820152601460248201527313585e08155b9b1bd8dad959081c995858da195960621b60448201526064015b60405180910390fd5b5f83116104125760405162461bcd60e51b815260206004820181905260248201527f416d6f756e74206d7573742062652067726561746572207468616e207a65726f60448201526064016103ba565b61041b336108fd565b8260025f82825461042c9190610da3565b9091555050335f908152600660205260408120805485929061044f908490610da3565b9091555050335f9081526009602052604081208054859290610472908490610da3565b9091555050604051839033907f7084f5476618d8e60b11ef0d7d3f06914655adb8793e28ff7f018d4c76d505d5905f90a360015460405163a9059cbb60e01b8152336004820152602481018590525f916001600160a01b03169063a9059cbb906044015b6020604051808303815f875af11580156104f2573d5f803e3d5ffd5b505050506040513d601f19601f820116820180604052508101906105169190610de0565b9050806105575760405162461bcd60e51b815260206004820152600f60248201526e151c985b9cd9995c8811985a5b1959608a1b60448201526064016103ba565b50505061056360015f55565b50565b61056e610b0e565b610577336108fd565b335f90815260076020526040902054806105c95760405162461bcd60e51b81526020600482015260136024820152724e6f207265776172647320746f20636c61696d60681b60448201526064016103ba565b335f81815260076020526040808220829055518392917ffc30cddea38e2bf4d6ea7d3f9ed3b6ad7f176419f4963bd81318067a4aee73fe91a360015460405163a9059cbb60e01b8152336004820152602481018390525f916001600160a01b03169063a9059cbb906044016020604051808303815f875af1158015610650573d5f803e3d5ffd5b505050506040513d601f19601f820116820180604052508101906106749190610de0565b9050806106b55760405162461bcd60e51b815260206004820152600f60248201526e151c985b9cd9995c8811985a5b1959608a1b60448201526064016103ba565b50506106c060015f55565b565b5f6106d860055442610b6590919063ffffffff16565b42600555335f908152600a60205260408120549192509061070090603c9061033c9085610b77565b335f90815260096020526040812080549293508392909190610723908490610dcd565b90915550505050565b5f5b83518160ff1610156108f757828160ff168151811061074f5761074f610dff565b602002602001015160065f868460ff168151811061076f5761076f610dff565b60200260200101516001600160a01b03166001600160a01b031681526020019081526020015f205f8282546107a49190610dcd565b92505081905550828160ff16815181106107c0576107c0610dff565b602002602001015160025f8282546107d89190610dcd565b9250508190555061082a828260ff16815181106107f7576107f7610dff565b6020026020010151848360ff168151811061081457610814610dff565b6020026020010151610b8290919063ffffffff16565b600a5f868460ff168151811061084257610842610dff565b60200260200101516001600160a01b03166001600160a01b031681526020019081526020015f2081905550610892848260ff168151811061088557610885610dff565b60200260200101516108fd565b828160ff16815181106108a7576108a7610dff565b6020026020010151336001600160a01b03167f9e71bc8eea02a63969f509818f2dafb9254532904319f9dbda79b67bd34a5f3d60405160405180910390a3806108ef81610e13565b91505061072e565b50505050565b610905610aa8565b60035542600455610915816102a4565b6001600160a01b039091165f90815260076020908152604080832093909355600354600890915291902055565b61094a610b0e565b5f61096060055442610b6590919063ffffffff16565b42600555335f908152600a60205260408120549192509061098890603c9061033c9085610b77565b335f908152600960205260408120805492935083929091906109ab908490610dcd565b9091555050826109fd5760405162461bcd60e51b815260206004820181905260248201527f416d6f756e74206d7573742062652067726561746572207468616e207a65726f60448201526064016103ba565b610a06336108fd565b8260025f828254610a179190610dcd565b9091555050335f9081526006602052604081208054859290610a3a908490610dcd565b9091555050604051839033907f9e71bc8eea02a63969f509818f2dafb9254532904319f9dbda79b67bd34a5f3d905f90a36001546040516323b872dd60e01b8152336004820152306024820152604481018590525f916001600160a01b0316906323b872dd906064016104d6565b5f6002545f03610ab9575060035490565b5f610acf60045442610b6590919063ffffffff16565b90505f610ae467016345785d8a000083610b77565b9050610b07610afe60025483610b8290919063ffffffff16565b60035490610b8d565b9250505090565b60025f5403610b5f5760405162461bcd60e51b815260206004820152601f60248201527f5265656e7472616e637947756172643a207265656e7472616e742063616c6c0060448201526064016103ba565b60025f55565b5f610b708284610da3565b9392505050565b5f610b708284610db6565b5f610b708284610e31565b5f610b708284610dcd565b80356001600160a01b0381168114610bae575f80fd5b919050565b5f60208284031215610bc3575f80fd5b610b7082610b98565b5f60208284031215610bdc575f80fd5b5035919050565b634e487b7160e01b5f52604160045260245ffd5b604051601f8201601f1916810167ffffffffffffffff81118282101715610c2057610c20610be3565b604052919050565b5f67ffffffffffffffff821115610c4157610c41610be3565b5060051b60200190565b5f82601f830112610c5a575f80fd5b81356020610c6f610c6a83610c28565b610bf7565b82815260059290921b84018101918181019086841115610c8d575f80fd5b8286015b84811015610ca85780358352918301918301610c91565b509695505050505050565b5f805f60608486031215610cc5575f80fd5b833567ffffffffffffffff80821115610cdc575f80fd5b818601915086601f830112610cef575f80fd5b81356020610cff610c6a83610c28565b82815260059290921b8401810191818101908a841115610d1d575f80fd5b948201945b83861015610d4257610d3386610b98565b82529482019490820190610d22565b97505087013592505080821115610d57575f80fd5b610d6387838801610c4b565b93506040860135915080821115610d78575f80fd5b50610d8586828701610c4b565b9150509250925092565b634e487b7160e01b5f52601160045260245ffd5b818103818111156102f0576102f0610d8f565b80820281158282048414176102f0576102f0610d8f565b808201808211156102f0576102f0610d8f565b5f60208284031215610df0575f80fd5b81518015158114610b70575f80fd5b634e487b7160e01b5f52603260045260245ffd5b5f60ff821660ff8103610e2857610e28610d8f565b60010192915050565b5f82610e4b57634e487b7160e01b5f52601260045260245ffd5b50049056fea264697066735822122096deed2947d748979d08292639ec762072777551492f4dfc90f3fc73fe057be164736f6c63430008140033",
    "deployedBytecode": "0x608060405234801561001057600080fd5b50600436106100625760003560e01c806306fdde031461006757806318160ddd1461008557806370a08231146100a35780638da5cb5b146100d357806395d89b41146100f1578063a9059cbb1461010f575b600080fd5b61006f61012b565b60405161007c91906105d2565b60405180910390f35b61008d6101b9565b60405161009a919061060d565b60405180910390f35b6100bd60048036038101906100b8919061068b565b6101bf565b6040516100ca919061060d565b60405180910390f35b6100db610208565b6040516100e891906106c7565b60405180910390f35b6100f961022e565b60405161010691906105d2565b60405180910390f35b6101296004803603810190610124919061070e565b6102bc565b005b600080546101389061077d565b80601f01602080910402602001604051908101604052809291908181526020018280546101649061077d565b80156101b15780601f10610186576101008083540402835291602001916101b1565b820191906000526020600020905b81548152906001019060200180831161019457829003601f168201915b505050505081565b60025481565b6000600460008373ffffffffffffffffffffffffffffffffffffffff1673ffffffffffffffffffffffffffffffffffffffff168152602001908152602001600020549050919050565b600360009054906101000a900473ffffffffffffffffffffffffffffffffffffffff1681565b6001805461023b9061077d565b80601f01602080910402602001604051908101604052809291908181526020018280546102679061077d565b80156102b45780601f10610289576101008083540402835291602001916102b4565b820191906000526020600020905b81548152906001019060200180831161029757829003601f168201915b505050505081565b80600460003373ffffffffffffffffffffffffffffffffffffffff1673ffffffffffffffffffffffffffffffffffffffff16815260200190815260200160002054101561033e576040517f08c379a0000000000000000000000000000000000000000000000000000000008152600401610335906107fa565b60405180910390fd5b6103626040518060600160405280602481526020016108fe60249139338484610477565b80600460003373ffffffffffffffffffffffffffffffffffffffff1673ffffffffffffffffffffffffffffffffffffffff16815260200190815260200160002060008282546103b19190610849565b9250508190555080600460008473ffffffffffffffffffffffffffffffffffffffff1673ffffffffffffffffffffffffffffffffffffffff1681526020019081526020016000206000828254610407919061087d565b925050819055508173ffffffffffffffffffffffffffffffffffffffff163373ffffffffffffffffffffffffffffffffffffffff167fddf252ad1be2c89b69c2b068fc378daa952ba7f163c4a11628f55a4df523b3ef8360405161046b919061060d565b60405180910390a35050565b6105138484848460405160240161049194939291906108b1565b6040516020818303038152906040527f8ef3f399000000000000000000000000000000000000000000000000000000007bffffffffffffffffffffffffffffffffffffffffffffffffffffffff19166020820180517bffffffffffffffffffffffffffffffffffffffffffffffffffffffff8381831617835250505050610519565b50505050565b60008151905060006a636f6e736f6c652e6c6f679050602083016000808483855afa5050505050565b600081519050919050565b600082825260208201905092915050565b60005b8381101561057c578082015181840152602081019050610561565b60008484015250505050565b6000601f19601f8301169050919050565b60006105a482610542565b6105ae818561054d565b93506105be81856020860161055e565b6105c781610588565b840191505092915050565b600060208201905081810360008301526105ec8184610599565b905092915050565b6000819050919050565b610607816105f4565b82525050565b600060208201905061062260008301846105fe565b92915050565b600080fd5b600073ffffffffffffffffffffffffffffffffffffffff82169050919050565b60006106588261062d565b9050919050565b6106688161064d565b811461067357600080fd5b50565b6000813590506106858161065f565b92915050565b6000602082840312156106a1576106a0610628565b5b60006106af84828501610676565b91505092915050565b6106c18161064d565b82525050565b60006020820190506106dc60008301846106b8565b92915050565b6106eb816105f4565b81146106f657600080fd5b50565b600081359050610708816106e2565b92915050565b6000806040838503121561072557610724610628565b5b600061073385828601610676565b9250506020610744858286016106f9565b9150509250929050565b7f4e487b7100000000000000000000000000000000000000000000000000000000600052602260045260246000fd5b6000600282049050600182168061079557607f821691505b6020821081036107a8576107a761074e565b5b50919050565b7f4e6f7420656e6f75676820746f6b656e73000000000000000000000000000000600082015250565b60006107e460118361054d565b91506107ef826107ae565b602082019050919050565b60006020820190508181036000830152610813816107d7565b9050919050565b7f4e487b7100000000000000000000000000000000000000000000000000000000600052601160045260246000fd5b6000610854826105f4565b915061085f836105f4565b92508282039050818111156108775761087661081a565b5b92915050565b6000610888826105f4565b9150610893836105f4565b92508282019050808211156108ab576108aa61081a565b5b92915050565b600060808201905081810360008301526108cb8187610599565b90506108da60208301866106b8565b6108e760408301856106b8565b6108f460608301846105fe565b9594505050505056fe5472616e7366657272696e672066726f6d20257320746f20257320257320746f6b656e73a2646970667358221220492eb00e696a134361cbc63e660c33565a1081cd99c7d98689a6a40a6811aa9e64736f6c63430008110033",
    "linkReferences": {},
    "deployedLinkReferences": {}
}